:100000000C9457010C947F010C947F010C947F0198
:100010000C947F010C947F010C947F010C947F0160
:100020000C947F010C947F010C947F010C947F0150
:100030000C947F010C947F010C947F010C947F0140
:100040000C94CE0D0C947F010C949C0D0C94760DA9
:100050000C947F010C947F010C947F010C947F0120
:100060000C94180E0C947F0100407A10F35A00A0F3
:10007000724E18090010A5D4E80000E87648170071
:1000800000E40B54020000CA9A3B000000E1F505B1
:10009000000080969800000040420F000000A086FB
:1000A00001000000102700000000E803000000002D
:1000B0006400000000000A000000000001000000D1
:1000C00000002C76D888DC674F0823DFC1DFAE59EB
:1000D000E1B1B796E5E3E453C63AE651997696E87E
:1000E000E6C28426EB898C9B62ED407C6FFCEFBC02
:1000F0009C9F40F2BAA56FA5F490055A2AF75C932D
:100100006B6CF9676DC11BFCE0E40D47FEF520E662
:10011000B500D0ED902E0300943577050080841E45
:10012000080000204E0A000000C80C333333330FA0
:10013000986E12831141EF8D2114893BE65516CF3D
:10014000FEE6DB18D1844B381BF77C1D901DA4BB49
:10015000E424203284725E228100C9F124ECA1E5FE
:100160003D27626C6E6B696E660076657200302E9C
:10017000362E3100682D6265617400313000627581
:1001800066662D696E003235360064657600417210
:100190006475696E6F20556E6F0063707500415411
:1001A0006D6567613332385000636F6E005374724F
:1001B00065616D006275696C64004A756C2033304E
:1001C00020323032312031343A32383A3331000083
:1001D0000000000000240027002A00000000002585
:1001E0000028002B0000000000230026002900004A
:1001F00000000800020100000304070000000000E6
:10020000000000820182018201820182018201825A
:1002100001820182018201820182018201820182C6
:1002200001820182018201820182018201820182B6
:1002300001820182018201820182018201820182A6
:10024000018201810181018101810181018101819D
:10025000018101810181018101810181018101818E
:10026000018101810181018101810181018101817E
:10027000018101810181018101810181018101816E
:1002800001810104040404040404040202020202C1
:10029000020303030303030102040810204080014A
:1002A000020408102001020408102000330F11245A
:1002B0001FBECFEFD8E0DEBFCDBF11E0A0E0B1E0C0
:1002C000EEE6F0E302C005900D92A035B107D9F734
:1002D00023E0A0E5B1E001C01D92AC3DB207E1F71B
:1002E00011E0C7E5D1E004C02197FE010E94FF178D
:1002F000C635D107C9F70E94A90F0C9435180C9484
:10030000000008950895CF92DF92EF92FF92CF936D
:10031000DF93B0916E02A0E08111AB2F80916F024C
:1003200090E0880F991FAC014B515E4FC090740252
:10033000D0907502E0907602F090770230E020E0F5
:10034000FA01C591D491E881B90190E080E0EB23F6
:10035000EA130AC02F5F3F4F6C157D058E059F0580
:1003600078F36FEF7FEFCB01DF91CF91FF90EF90AC
:10037000DF90CF900895AF92BF92CF92DF92EF922D
:10038000FF920F931F93CF93DF936C017B018B013F
:10039000040F151FEB015E01AE18BF08C017D1078F
:1003A00059F06991D601ED91FC910190F081E02D19
:1003B000C6010995892B79F7C501DF91CF911F916E
:1003C0000F91FF90EF90DF90CF90BF90AF90089586
:1003D000FC01538D448D252F30E0842F90E0821B4B
:1003E000930B541710F0CF96089501970895FC01D0
:1003F000918D828D981761F0A28DAE0FBF2FB11D28
:100400005D968C91928D9F5F9F73928F90E008957F
:100410008FEF9FEF0895FC01918D828D981731F039
:10042000828DE80FF11D858D90E008958FEF9FEF8D
:100430000895FC01918D228D892F90E0805C9F4F63
:10044000821B91098F73992708958AEC91E00E948D
:10045000190221E0892B09F420E0822F089580E021
:1004600090E0892B29F00E94250281110C94000054
:100470000895FC01A48DA80FB92FB11DA35ABF4F39
:100480002C91848D90E001968F739927848FA68993
:10049000B7892C93A089B1898C91837080648C93E7
:1004A000938D848D981306C00288F389E02D808196
:1004B0008F7D80830895EF92FF920F931F93CF93C8
:1004C000DF93EC0181E0888F9B8D8C8D98131AC08F
:1004D000E889F989808185FF15C09FB7F894EE8976
:1004E000FF896083E889F9898081837080648083D3
:1004F0009FBF81E090E0DF91CF911F910F91FF901E
:10050000EF900895F62E0B8D10E00F5F1F4F0F73C5
:100510001127E02E8C8D8E110CC00FB607FCFACF80
:10052000E889F989808185FFF5CFCE010E943902E3
:10053000F1CFEB8DEC0FFD2FF11DE35AFF4FF08251
:100540009FB7F8940B8FEA89FB8980818062CFCFB7
:10055000CF93DF93EC01888D8823B9F0AA89BB89FA
:10056000E889F9898C9185FD03C0808186FD0DC0E5
:100570000FB607FCF7CF8C9185FFF2CF808185FF06
:10058000EDCFCE010E943902E9CFDF91CF910895DE
:10059000833081F028F4813099F08230A9F00895F9
:1005A0008730A9F08830C9F08430B1F480918000A0
:1005B0008F7D03C0809180008F77809380000895A5
:1005C00084B58F7784BD089584B58F7DFBCF8091EE
:1005D000B0008F778093B00008958091B0008F7D38
:1005E000F9CFCF93DF93282F30E0F901E151FE4F8F
:1005F0008491F901E956FD4FD491F901ED57FD4F72
:10060000C491CC23A1F081110E94C802EC2FF0E02C
:10061000EE0FFF1FEB51FE4FA591B491EC91ED232E
:1006200081E090E009F480E0DF91CF91089580E0CF
:1006300090E0FACF1F93CF93DF93282F30E0F9019A
:10064000E151FE4F8491F901E956FD4FD491F90132
:10065000ED57FD4FC491CC23A9F0162F81110E94B4
:10066000C802EC2FF0E0EE0FFF1FE552FE4FA59100
:10067000B4918FB7F894EC91111108C0D095DE2396
:10068000DC938FBFDF91CF911F910895DE2BF8CFC0
:10069000CF93DF9390E0FC01E956FD4F24918D57F5
:1006A0009D4FFC0184918823C9F090E0880F991F29
:1006B000FC01EF52FE4FA591B491FC01E552FE4FB3
:1006C000C591D49161110DC09FB7F8948C9120957C
:1006D00082238C938881282328839FBFDF91CF9129
:1006E0000895623051F49FB7F8943C91822F809521
:1006F00083238C93E8812E2BEFCF8FB7F894EC9166
:100700002E2B2C938FBFEACF8E3008F08E5087703F
:10071000806480937C0080917A00806480937A006A
:1007200080917A0086FDFCCF8091780090917900CD
:1007300008953FB7F8948091C6019091C701A091A8
:10074000C801B091C90126B5A89B05C02F3F19F07B
:100750000196A11DB11D3FBFBA2FA92F982F882741
:10076000BC01CD01620F711D811D911D42E0660F1C
:10077000771F881F991F4A95D1F708958F929F92EE
:10078000AF92BF92CF92DF92EF92FF926B017C010A
:100790000E9499034B015C01C114D104E104F104EE
:1007A000B9F00E949903681979098A099B09683E82
:1007B00073408105910580F321E0C21AD108E10858
:1007C000F10888EE880E83E0981EA11CB11CE4CFCE
:1007D000FF90EF90DF90CF90BF90AF909F908F9061
:1007E00008952FB7F8946091C2017091C301809170
:1007F000C4019091C5012FBF0895CF92DF92EF926F
:10080000FF920F931F93CF93DF93CDB7DEB7C05402
:10081000D1400FB6F894DEBF0FBECDBF0E94F103EA
:100820000091700210917102209172023091730256
:100830006B017C01C01AD10AE20AF30A9701860112
:10084000003D17402105310590F480917802C05C8D
:10085000DE4F0FB6F894DEBF0FBECDBFDF91CF9154
:100860001F910F91FF90EF90DF90CF9008956093CC
:1008700070027093710280937202909373021092CF
:100880006B0210926A021092690210926802109232
:10089000670262E080916C020E94480361E070E0B0
:1008A00080E090E00E94BE0361E080916C020E94B3
:1008B000480360E080916C020E941A0380916D02EF
:1008C0008551823020F58BE291E10197F1F762E0EA
:1008D00080916C020E9448038091790290E08230FE
:1008E000910538F0880F991F880F991F0597019778
:1008F000F1F7F89480E00E9483016F3F7F4F8F4FA4
:100900009F4F61F410927802789480E0A0CF64E168
:1009100070E080E090E00E94BE03D9CF81E00E94A9
:1009200083016F3F7F4F8F4F9F4F61F38E010F5FAA
:100930001F4F6E012FEBC21A2EEFD20A780180E012
:100940000E948301F701608371838283938381E036
:100950000E948301F7016483758386839783F8E09F
:10096000EF0EF11CEC14FD0451F7789430E020E018
:10097000F801C080D180E280F38044815581668196
:100980007781FFEFCF16DF06EF06FF0631F04F3F0E
:100990008FEF58076807780719F410927802B5CFDF
:1009A000F90183E0F595E7958A95E1F7E959FD4F5F
:1009B0008081880FC416D506E606F70610F18083FD
:1009C0002F5F3F4F085F1F4F2832310589F6409156
:1009D0006B022091670280916802280F3327331F32
:1009E00080916902280F311D80916A02820F932F36
:1009F000911D99274817190681F681E080937802A6
:100A000026CF8160DCCF85ED8093BC008091BC0057
:100A100084FDFCCF10929B01089520917701260F51
:100A20003327331F21323105ECF420919B01FC0167
:100A300090E080E0243069F082E00895A091770191
:100A40002191AC01495A5E4FA40FB52FB11D2C93D3
:100A50000196861798F380917701680F609377016C
:100A600080E0089581E008958FEF9FEF08958FEF64
:100A70009FEF08958091560190E09195819591099D
:100A80000895CF93DF93CB01EA01642F0E940D05F7
:100A9000CE01DF91CF910895CF93DF931F92CDB711
:100AA000DEB7698361E0CE0101960E940D0581E009
:100AB00090E00F90DF91CF91089590E080E008954D
:100AC0008F929F92AF92BF92CF92DF92EF92FF925E
:100AD0000F931F93CF93DF936C017B018B01040F66
:100AE000151F0E94F1034B015C01E701C017D107FC
:100AF000C8F40E94F103681979098A099B09683BC7
:100B00007B408105910570F4D6018D919C91DC01AB
:100B1000ED91FC910284F385E02D099597FDE6CFD8
:100B20008993E4CFCE018E199F09DF91CF911F9158
:100B30000F91FF90EF90DF90CF90BF90AF909F907C
:100B40008F900895DC01ED91FC911197309761F041
:100B500012962D913C911397E217F30728F4019018
:100B60000020E9F7ED93FC930895FC0180819181C9
:100B7000009739F0228133818217930710F40C9487
:100B8000E01290E080E008950F931F93CF93DF93DE
:100B9000EC01FB0101900020E9F78F01061B170B08
:100BA0008A819B81A801480F591F2C813D81241700
:100BB000350768F028813981A801820F931F0E94B0
:100BC00014184A815B81400F511F5B834A83DF9178
:100BD000CF911F910F9108950F931F93CF93DF93A0
:100BE000CDB7DEB762970FB6F894DEBF0FBECDBFAC
:100BF0008C01CB014AE0BE016F5F7F4F0E9407135B
:100C0000BE016F5F7F4FC8010E94C40562960FB698
:100C1000F894DEBF0FBECDBFDF91CF911F910F9132
:100C200008953F924F925F926F927F928F929F9220
:100C3000AF92BF92CF92DF92EF92FF920F931F93EA
:100C4000CF93DF93CDB7DEB7A1970FB6F894DEBF91
:100C50000FBECDBF6C012DB73EB739A328A360E00E
:100C600070E0CB010E94BE03D60157968D919C91F6
:100C70005897B12C029709F447C356968C91569712
:100C80008F5F56968C93569754962D913C9155971D
:100C9000232B19F0BB24B39430C38330D8F7ED91E4
:100CA000FC918281882309F40DC3FE0131963F0136
:100CB000D601ED91FC9180819181DC01ED91FC9157
:100CC0000084F185E02D0995181619060CF0FAC27A
:100CD00045E050E0BE01695E7F4FF6018081918161
:100CE0000E946005009721F3059709F04AC0888D9E
:100CF000998D982789279827998F888FEA8CFB8C64
:100D0000FE24EF24FE24FB8EEA8E892BD1F18F89FD
:100D1000811142C00E94F103D60116966D937D9316
:100D20008D939C93199757962D913C9158974A8D86
:100D30005B8D232B61F5288D398D2130310539F5F7
:100D400049305105C1F0483C510519F04430510576
:100D5000C1F4F60166877787808B918B21E030E0C4
:100D6000308F278BC6010E94570B60E070E0CB01EB
:100D70000E94BE039DCF83E090E058969C938E9393
:100D80005797D601ED91FC911282B12CB6C2453035
:100D9000510509F08DCFF5CFF60180819181F1E009
:100DA000EF16FF0640F0D60158961C921E925797F8
:100DB000FC0112827DCFADB6BEB697012F5F3F4FCB
:100DC0004DB75EB7421B530B0FB6F8945EBF0FBE14
:100DD0004DBF0DB71EB70F5F1F4FA701B8010E948F
:100DE00060058E159F0509F068C0EA8DFB8DE00F48
:100DF000F11F10820E94F103D60116966D937D9328
:100E00008D939C9319978F89813109F44BC228F5F2
:100E10008630B1F08F3009F481C0823021F5F601BF
:100E20008789908D892B61F421E030E0308F278B0A
:100E3000C6010E94570B60E070E0CB010E94BE0328
:100E4000488D598DF12CE12C08EC10E030E020E0C9
:100E500060E0C6010E94500A13C08D3101F360F4B6
:100E6000843109F45BC0D60158961C921E925797A4
:100E7000ED91FC91128204C0893241F0873399F7D9
:100E80000FB6F894BEBE0FBEADBE12CF14968D91B4
:100E90009C91892B39F480E290E00E94BB11F6010D
:100EA000958384838A8D9B8D800F911F1A8309837C
:100EB0009C838B830817190730F00FB6F894BEBED9
:100EC0000FBEADBE5ECF40E250E0B801D601149631
:100ED0008D919C910E942618C3010E94A205D60103
:100EE000ED91FC911197128258961C921E92579781
:100EF0000E94F103DC01CB0188589341A109B1099B
:100F0000F60182879387A487B58786839783A08716
:100F1000B18786879787A08BB18BB2CF888D998D4B
:100F2000D60155969C938E9354974A8C5B8C4801BE
:100F3000840C951C1D8F0C8F9F8E8E8E08151905A5
:100F400008F03DC1F801E080F180CE014C960E948E
:100F5000A205DC018D919C918815990508F02FC19F
:100F60008C8D9D8DFC012081213459F401960E94C5
:100F7000E0123EE0332E380E069744F033243A94C4
:100F800005C0CE014C960E94B505382EF6E7EF1647
:100F9000F2E7FF0609F436C140F531E6E31632E721
:100FA000F30609F4CFC044E6E41642E7F40609F478
:100FB00083C050E7E5165DE6F50609F067C18C8D44
:100FC0009D8D8815990508F0FAC0FC012081213417
:100FD00009F03FC001960E94E0122EE0F22EF80EBA
:100FE0000697E4F1FF24FA9439C084E6E81687E70F
:100FF000F80609F48CC096E7E91697E7F90609F4B4
:1010000018C1A1E6EA16A7E7FA0609F03FC1CE012A
:101010004C960E94A205DC018D919C918815990542
:1010200008F0CDC061E0832D0E944803CE014C96AC
:101030000E94B5058C0161E0832D0E9448030115D3
:10104000110509F47AC00F3F110509F093C061E062
:1010500075C0CE014C960E94B505F82ECE014C9677
:101060000E94A2050C8D1D8D69E371E0C8010E94EC
:101070001D1860E0892B79F06CE371E0C8010E94D3
:101080001D18892B39F060E471E0C8010E941D1819
:10109000892B49F461E08F2D0E944803CE014C96C4
:1010A0000E94A2058CCF64E471E0C8010E941D1863
:1010B000892BA1F762E0EFCF7A8A698A1C8A1B8AA2
:1010C00020E130E03E8B2D8B67E471E0CE0141964C
:1010D0000E94C405632D70E0CE0141960E94EC058C
:1010E000832D0E94F102BC01CE0141960E94EC05C5
:1010F0000B891C890150110929893A89F12CE12CAD
:1011000050E040E064E1C6010E94500A58C0CE01A0
:101110004C960E94A205DC018D919C918815990541
:1011200008F04DC061E0832D0E944803CE014C962B
:101130000E94B50561E0892B09F460E0832D0E94CF
:101140001A033DC07A8A698A1C8A1B8AE0E1F0E0B2
:10115000FE8BED8B6AE471E0CE0141960E94C405DE
:10116000632D70E0CE0141960E94EC05832D0E9414
:101170008403B9CFE32DF0E0E151FE4FE491E33079
:1011800039F148F4E130B9F0E230E9F00038110506
:101190000CF05DCFD2CFE73029F1E83059F1E430DF
:1011A000A9F78091800080628093800010938B006B
:1011B00000938A0004C084B5806884BD07BDF60131
:1011C000158A148A5DCE84B5806284BD08BDF7CFD0
:1011D0008091800080688093800010938900009344
:1011E0008800EDCF8091B00080688093B0000093BC
:1011F000B300E5CF8091B00080628093B00000938F
:10120000B400DDCF3982BFE1B315C8F2E32DF0E0C1
:10121000EE0FFF1FED5FFD4F259134912115310534
:1012200071F2E1E022383E0751F2C301F90109955C
:10123000C6CFCE014C960E94A2058C8D9D8D9C013F
:10124000201B310B421A530A9A8389835C824B829A
:101250005E824D82398AFFE1F31508F4B0CFE32DA9
:10126000F0E0EE0FFF1FED5BFD4F2591349121154E
:10127000310509F4A4CF41E02138340709F49FCFA8
:10128000B301CE014196F901099599CFD601549643
:101290004D915C91F12CE12C02E010E030E020E077
:1012A00060E031CF8A8D9B8D800F911F1A83098357
:1012B0009C838B830817190708F0E2CDC3010E94B5
:1012C000A205DECD0E94F1032B013C01F601008155
:1012D0001181D8011296BC9012978789908D813028
:1012E000910509F088C0B1102FC046865786608AE4
:1012F000718A108E178A12961C92D60156968C917E
:101300005697815056968C938B2DE8A1F9A10FB674
:10131000F894FEBF0FBEEDBFA1960FB6F894DEBFE6
:101320000FBECDBFDF91CF911F910F91FF90EF9036
:10133000DF90CF90BF90AF909F908F907F906F90F5
:101340005F904F903F90089586819781A085B185E9
:10135000A3019201281B390B4A0B5B0BDA01C9016F
:1013600089333AE49307A105B10530F0108E178A4E
:10137000D80112961C9209CD81319742A105B10581
:1013800098F4F60182859385A485B585A301920121
:10139000281B390B4A0B5B0BDA01C90181319742DB
:1013A000A105B10508F476CCF60186859785A0895C
:1013B000B189A3019201281B390B4A0B5B0BDA019F
:1013C000C901893B9B40A105B10508F463CCF12C10
:1013D000E12C10E000E030E020E050E040E066E08A
:1013E000C6010E94500AD6011E964D925D926D92E2
:1013F0007C92519782CF892B09F04CCC86859785BA
:10140000A089B189481A590A6A0A7B0ABB2079F077
:10141000F9EB4F16FBE05F066104710408F43ACC67
:10142000D80112961C92F601108E178AAECCF9E8FC
:101430004F16F3E15F066104710408F42BCCD80168
:101440008D919C91DC01ED91FC910680F781E02D5E
:10145000099581E0F801828381E090E0D6015396FE
:101460009C938E93529712962D913C91F901019085
:101470000020E9F731978F01021B130BF12CE12CAF
:1014800041E050E06DE1C6010E94500AF6018285FC
:101490009385A485B58586879787A08BB18BFACB7A
:1014A0002F923F924F925F927F928F929F92AF9234
:1014B000BF92CF92DF92EF92FF920F931F93CF9341
:1014C000DF9300D000D01F92CDB7DEB77C01762E1F
:1014D0006A015901DC01ED91FC918281882309F4B4
:1014E000AFC0862F8D7F09F4DDC0B6E06B1709F41D
:1014F000D9C0EDE16E1709F4D5C0D70157968D918B
:101500009C91019709F09CC0452B81F4F701C48898
:10151000D588C114D10451F482899389019609F4C4
:10152000A6C0938B828BF701C288D38884EF870D86
:101530008930B0F5D7011A964D915D916D917C91EE
:101540001D9716968D919D910D90BC91A02D84179D
:101550009507A607B70710F4DB01CA011C012D018E
:10156000E2E42E0E311C411C511C0E94F103A20129
:101570009101261B370B480B590BDA01C901B7FD46
:101580007BC0C7010E9411060E94F103A2019101D4
:10159000261B370B480B590BDA01C901B7FFF1CFF6
:1015A0004801B5E08B0E911CA114B10419F485E03B
:1015B000882E912C7982DC24CD24DC24DB82CA8223
:1015C000902F812F9D838C83D701ED91FC91808199
:1015D0009181DC01ED91FC910280F381E02D45E0E9
:1015E00050E0BE016F5F7F4F099560E070E0CB0176
:1015F0000E94BE03772009F448C00115110509F4C3
:1016000044C0D701ED91FC9180819181DC01ED9185
:10161000FC910280F381E02DA801B50109950B5FD3
:101620001F4F60E070E0CB010E94BE038016910660
:1016300079F1F701108E178A0190F081E02D128266
:101640000F900F900F900F900F90DF91CF911F91FF
:101650000F91FF90EF90DF90CF90BF90AF909F9051
:101660008F907F905F904F903F902F90089581E0F2
:1016700090E0938B828B57CFD70156968C91811136
:101680008FCFC7010E9411068BCF05E010E0CECFAF
:101690000E94F103D7011A966D937D938D939C93CD
:1016A0001D97CECFC114D10409F07ACF2FCFCF929E
:1016B000DF92EF92FF920F931F93CF93DF93CDB7FB
:1016C000DEB7C55AD1090FB6F894DEBF0FBECDBF45
:1016D0006C0145E650E06AE671E0CE0101960E9499
:1016E000FE12CE018A599F4F7C0105E610E09E0153
:1016F0002F5F3F4F50E040E061E1C6010E94500A79
:10170000CB55DF4F0FB6F894DEBF0FBECDBFDF91D4
:10171000CF911F910F91FF90EF90DF90CF900895A0
:10172000EF92FF920F931F93CF93DF93CDB7DEB766
:10173000C658D1090FB6F894DEBF0FBECDBF7C01ED
:101740008B01CE010196CF57DF4F99838883C15813
:10175000D040CD57DF4F19821882C358D04080E85F
:1017600090E0CB57DF4F99838883C558D0406DE414
:1017700071E0CE018F579F4F0E94C405B701CE0183
:101780008F579F4F0E94EC05B801CE018F579F4F96
:101790000E94EC05CD57DF4F08811981C358D04016
:1017A00001501109CF57DF4F28813981C158D040EE
:1017B000F12CE12C50E040E064E18CEB93E00E94DE
:1017C000500ACA57DF4F0FB6F894DEBF0FBECDBF29
:1017D000DF91CF911F910F91FF90EF9008954F925D
:1017E0005F926F927F92AF92BF92CF92DF92EF9211
:1017F000FF920F931F93CF93DF93CDB7DEB7C75AF6
:10180000D1090FB6F894DEBF0FBECDBF0E94FD0315
:10181000882341F080916D028C3009F461C038F466
:101820008B30F1F060E070E080EC9FE741C08551C3
:101830008230C0F710916902612F70E0762F662721
:1018400066277F7780916A02682B90E080E00E9493
:10185000C7162DEC3CEC4CEC5DE30E9455175CC0C8
:101860006091690270E090E080E00E94C7166B0111
:101870007C0110916A0217FF0AC0AC019B0160E075
:1018800070E080E89FEB0E94B2156B017C011F7035
:10189000612F70E090E080E00E94C9162DEC3CECD6
:1018A0004CEC5DE30E945517A70196010E94B31509
:1018B0000E9491166B010E94FD03882351F08091D4
:1018C0006D028B3030F08D3058F18551823008F444
:1018D000FBC0412C512C80EC682E8FE7782E3EC047
:1018E00010916902612F70E090E080E00E94C716BD
:1018F0006B017C0160916A026F7070E090E080E0A3
:101900000E94C9162DEC3CEC4CEC5DE30E9455178F
:10191000A70196010E94B31517FFCACF9058C8CFF0
:101920006091680270E090E080E00E94C9162DECA2
:101930003CEC4CEC5DE30E9455172B013C0160919F
:10194000670270E090E080E00E94C9169B01AC0144
:10195000C301B2010E94B3152B013C0180E00E943B
:101960008403BC01990F880B990B0E94C91620E0D3
:1019700030EC4FE754E40E941F162CE53FE842ECA0
:101980005DE30E94B3152CEB34E743E15CE30E9476
:101990001F166093520170935301809354019093EA
:1019A000550183E00E94F1025C0181E00E94840302
:1019B0009093510180935001B60181E090E00E9424
:1019C000900BC301B2010E94911682E090E00E9448
:1019D000900BC0905201D0905301E0905401F090D0
:1019E0005501CE010196CE55DF4F99838883C25AA7
:1019F000D040CC55DF4F19821882C45AD04080E8BD
:101A000090E0CA55DF4F99838883C65AD0406DE471
:101A100071E0CE018E559F4F0E94C40563E070E0D7
:101A2000CE018E559F4F0E94EC058E010F571F4F20
:101A300023E045E0C701B6010E949D11B801CE0127
:101A40008E559F4F0E94C405CC55DF4F08811981E8
:101A5000C45AD04001501109CE55DF4F2881398139
:101A6000C25AD040F12CE12C50E040E064E18CEB14
:101A700093E00E94500AB50184E090E00E94900B30
:101A8000609150017091510185E090E00E94900BAF
:101A900064EF71E080E090E00E94BE03C955DF4F23
:101AA0000FB6F894DEBF0FBECDBFDF91CF911F916F
:101AB0000F91FF90EF90DF90CF90BF90AF907F900D
:101AC0006F905F904F9008956091670270916802E7
:101AD00076276727762790E080E00E94C7162DECD6
:101AE0003CEC4CEC5DE30E94551736CF1F920F92F1
:101AF0000FB60F9211242F933F934F935F936F93E1
:101B00007F938F939F93AF93BF93EF93FF938AEC51
:101B100091E00E943902FF91EF91BF91AF919F91A7
:101B20008F917F916F915F914F913F912F910F9086
:101B30000FBE0F901F9018951F920F920FB60F9225
:101B400011242F938F939F93EF93FF93E091DA01EA
:101B5000F091DB018081E091E001F091E10182FDF3
:101B60001BC090818091E3018F5F8F732091E4010E
:101B7000821741F0E091E301F0E0E653FE4F958FCC
:101B80008093E301FF91EF919F918F912F910F909F
:101B90000FBE0F901F9018958081F4CF1F920F9267
:101BA0000FB60F9211242F933F938F939F93AF9370
:101BB000BF938091C2019091C301A091C401B091E3
:101BC000C5013091C10123E0230F2D3758F501964F
:101BD000A11DB11D2093C1018093C2019093C30147
:101BE000A093C401B093C5018091C6019091C70133
:101BF000A091C801B091C9010196A11DB11D8093AA
:101C0000C6019093C701A093C801B093C901BF91C9
:101C1000AF919F918F913F912F910F900FBE0F9099
:101C20001F90189526E8230F0296A11DB11DD2CF53
:101C30001F920F920FB60F9211242F933F934F9341
:101C40005F936F937F938F939F93AF93BF93EF9324
:101C5000FF938091B900887F803609F44AC0F0F57F
:101C6000883209F4A5C018F5803109F499C0B8F498
:101C7000882309F4F5C0883009F492C0FF91EF91F0
:101C8000BF91AF919F918F917F916F915F914F9194
:101C90003F912F910F900FBE0F901F901895883194
:101CA00009F486C0803251F780939A0114C08034C1
:101CB00009F49BC040F48033B9F38833F9F680937C
:101CC0009A0185ECAEC0803509F483C0883509F4EB
:101CD00094C0883499F60E940305D0CF883909F45E
:101CE0008AC038F5883729F050F4883611F08037EB
:101CF00029F683E080939B011092990155C08838A2
:101D000009F479C0803919F0803809F0B7CF809193
:101D10009901803208F06FC0E091990181E08E0F47
:101D2000809399018091BB00F0E0E758FE4F8083DB
:101D30003BC0803B39F0D0F4803A09F477C0883A50
:101D400009F09CCF84E080939B011092780110925F
:101D50007701F0E0E0E009958091770181110FC0F3
:101D600081E0809377011092570109C0803C09F40B
:101D7000A8CF883C09F4A5CF883B09F07FCFE0913C
:101D8000780181E08E0F80937801F0E0E95AFE4FF0
:101D900080818093BB00909178018091770129C068
:101DA0008091C0018093BB0085EC8093BC0066CF1E
:101DB0009091BF018091BE01981758F5E091BF0145
:101DC00081E08E0F8093BF01F0E0E256FE4F8081EC
:101DD000E9CFE091BF0181E08E0F8093BF01809138
:101DE000BB00F0E0E256FE4F80839091BF018091EE
:101DF000BE019817C8F285E8D8CFE091BF0181E015
:101E00008E0F8093BF018091BB00F0E0E256FE4F41
:101E1000808380919D0181115ECF81E080939C0140
:101E200084EA8093BC0010929B0128CF85EC8093BC
:101E3000BC0010929B0180919901803230F4E091B6
:101E40009901F0E0E758FE4F10826091990170E02F
:101E500089E791E0F0E0E0E00995109299010ECF5A
:101E600010929A0138CFEAECF1E01382128288EEE8
:101E700093E0A0E0B0E084839583A683B7838BE2F0
:101E800091E09183808385EC90E09587848784EC52
:101E900090E09787868780EC90E0918B808B81EC37
:101EA00090E0938B828B82EC90E0958B848B86EC18
:101EB00090E0978B868B118E128E138E148EA5ED6B
:101EC000B3E011961C921E9212961C921297ECEBA4
:101ED000F3E0B183A08313821282158214821682EA
:101EE000178210861186128613861486158616862A
:101EF0001786108A118A138A128A158A148A168AFA
:101F0000108E178A8FEF9FEF9093BB038093BA03D5
:101F1000A7E6B2E082E015968C9315978BE01696B3
:101F20008C931697E9E9F2E0E4911796EC931797F2
:101F3000E5E8F2E0E4911896EC93189740E85EE348
:101F400060E070E01D964D935D936D937C93509788
:101F50000895789484B5826084BD84B5816084BD21
:101F600085B5826085BD85B5816085BD80916E0037
:101F7000816080936E001092810080918100826068
:101F800080938100809181008160809381008091A5
:101F900080008160809380008091B1008460809394
:101FA000B1008091B00081608093B00080917A0090
:101FB000846080937A0080917A00826080937A00B6
:101FC00080917A00816080937A0080917A008068A5
:101FD00080937A001092C100E091DA01F091DB0168
:101FE00082E08083E091D601F091D7011082E091E8
:101FF000D801F091D9018FEC80831092E201E09139
:10200000DE01F091DF0186E08083E091DC01F09158
:10201000DD01808180618083E091DC01F091DD0150
:10202000808188608083E091DC01F091DD01808116
:1020300080688083E091DC01F091DD0180818F7DFB
:10204000808380E091E09093BF038093BE030E9461
:10205000F103DC01CB0188589341A109B1098093B8
:10206000C6039093C703A093C803B093C90380939A
:10207000C2039093C303A093C403B093C50380939A
:10208000CA039093CB03A093CC03B093CD03E0910C
:10209000BC03F091BD038AEC91E091838083E091D1
:1020A000BC03F091BD0312821092D4031092D303AB
:1020B0000E94F1036B017C018091D3039091D403C2
:1020C000019781F00E94F1036C197D098E099F0927
:1020D000683273428105910528F48CEB93E00E94ED
:1020E0001106EACF8091D3039091D4030197B9F6FA
:1020F00062E080916C020E9448030E94F103605DDF
:102100007740810991096093700270937102809306
:1021100072029093730287E38093790261E083E017
:102120000E9448038091BA039091BB0397FF18C0A7
:102130000E94F103EAE7F2E04AEB53E024E1DF0119
:10214000322F1D923A95E9F76083718382839383DE
:1021500074964E175F0799F71092BB031092BA035B
:102160008091BA039091BB03409774F4EAE7F2E0E0
:1021700090E080E024813581232B09F4B3C00196DF
:10218000749680319105B1F722242394312C8CEB85
:1021900093E00E9411060E94F1032B013C010AE723
:1021A00012E0E8011B8A1A8A8C819D81892B71F1CA
:1021B00088809980AA80BB80C301B201681979091F
:1021C0008A099B09C984DA84EB84FC846C157D053B
:1021D0008E059F05D8F0A70196010E94D217C7016E
:1021E000B6010E94C217860E971EA81EB91E8882CD
:1021F0009982AA82BB828989882341F02D853E85F8
:102200002115310509F058C03B8A2A8A6496AAEB49
:10221000B3E0AC17BD0731F6F80182899389892BA9
:1022200099F10480F581E02DD80118968C911897CA
:10223000882309F455C016968D919C910995F80153
:1022400082899389029701F58091BA039091BB032B
:10225000892BD1F084819581892BB1F0D801E4E1FB
:102260001D92EA95E9F70E94F103D8016D937D93E1
:102270008D939C9313978091BA039091BB03019720
:102280009093BB038093BA030C5E1F4FC017D10716
:1022900019F668EE73E080E090E00E94BE03E0E093
:1022A000F0E0EF2B09F473CF0E942502882309F494
:1022B0006ECF0E9400006BCF8F859889821793079D
:1022C00008F0A4CF3B8A2A8A0196988B8F878217C1
:1022D000930708F49BCF82E090E09B8B8A8B96CF8C
:1022E0000995ADCF24E1289FE001299FD00D11244D
:1022F000C658DD4F88EE93E0A0E0B0E089879A876A
:10230000AB87BC878FEE9BE09D838C831F821E82F0
:1023100018861E861D8681E0898B0E94F1036883E2
:1023200079838A839B838091BA039091BB03019642
:102330009093BB038093BA0327CFEF920F931F9321
:10234000CF93DF93E80134E047FD34E1042E000C25
:10235000550B57FF03C0519541955109E32E022FAC
:10236000242FAE010E943413CE01DF91CF911F9133
:102370000F91EF9008950F931F93CF93DF938230C7
:10238000910510F482E090E0E091DA03F091DB0334
:1023900030E020E0B0E0A0E0309799F4211531055D
:1023A00009F44AC0281B390B24303105D8F58A813D
:1023B0009B816115710589F1FB0193838283FE0185
:1023C00011C0408151810281138148175907E0F003
:1023D0004817590799F4109761F012960C931297C9
:1023E00013961C933296CF01DF91CF911F910F91DD
:1023F00008950093DA031093DB03F4CF2115310520
:1024000051F04217530738F0A901DB019A01BD01D1
:10241000DF01F801C1CFEF01F9CF9093DB03809387
:10242000DA03CDCFFE01E20FF31F81939193225087
:10243000310939832883D7CF2091D8033091D9032C
:10244000232B41F420912301309124013093D903AF
:102450002093D803209121013091220121153105CB
:1024600041F42DB73EB74091250150912601241B20
:10247000350BE091D803F091D903E217F307A0F4EC
:102480002E1B3F0B2817390778F0AC014E5F5F4FCA
:102490002417350748F04E0F5F1F5093D903409320
:1024A000D803819391939FCFF0E0E0E09CCFCF934E
:1024B000DF930097E9F0FC01329713821282A0911A
:1024C000DA03B091DB03ED0130E020E01097A1F4D6
:1024D00020813181820F931F2091D8033091D9033D
:1024E0002817390709F061C0F093D903E093D803A6
:1024F000DF91CF910895EA01CE17DF07E8F54A8111
:102500005B819E0141155105B1F7E901FB83EA8327
:1025100049915991C40FD51FEC17FD0761F48081D3
:1025200091810296840F951FE901998388838281A6
:1025300093819B838A83F0E0E0E012968D919C91D9
:1025400013970097B9F52D913C911197CD01029603
:10255000820F931F2091D8033091D9032817390790
:1025600039F6309751F51092DB031092DA03B093ED
:10257000D903A093D803BCCFD383C28340815181B8
:10258000840F951FC817D90761F44E5F5F4F88818C
:102590009981480F591F518340838A819B8193837E
:1025A00082832115310509F0B0CFF093DB03E0936E
:1025B000DA039ECFFD01DC01C0CF13821282D7CF98
:1025C000FC0188279927E89421912032E9F32930EA
:1025D00010F02E30C8F32B3241F02D3239F46894CC
:1025E00004C00E941213820F911D219120532A30A2
:1025F000C0F31EF4909581959F4F0895FB01DC0177
:1026000002C005900D9241505040D8F70895BB2765
:102610004A3031F4992322F4BDE2909581959F4F81
:102620000C941B137AE0979F902D879F802D910D1E
:1026300011240895BB27FB015527AA27880F991F4E
:10264000AA1FA41710F0A41B83955051B9F7A05DE1
:10265000AA3308F0A95DA193009779F7B111B1935E
:102660001192CB010C946B15A9E0B0E0EAE3F3E121
:102670000C9481156A01F22EB02E102FFBE3AF2EC1
:10268000A01608F41BE31F5F012F27E0AE014F5F88
:102690005F4F0E949314BC018981982F99709130EB
:1026A00009F43FC09BE2E1FC04C09E2D9170E0FC68
:1026B0003AC05E2D5071E82FE87083FF46C084E079
:1026C000911101C083E0EF2DE81B8F1508F0E0E0C9
:1026D000D6018E2F20E2552351F1992329F0D601FE
:1026E0009C93C60101966C0196012D5F3F4FE2FE5F
:1026F00024C08EE4D6018C9391E411969C9311979B
:1027000012968C93D9018E2F90E281111BC0E20F9B
:10271000F32FF11D10828EEF9FEF2996ECE00C94C1
:102720009D159DE2C6CF90E2C4CF2D9381508111BB
:10273000FCCFCE0ED11CE0E0D0CF8EE6D6018C933C
:1027400091E6DBCF9D938150E0CF482F447082FF0C
:102750003DC084E0911101C083E08F1510F4EF2D8E
:10276000E81BD6018E2F20E2552309F1992329F089
:10277000D6019C93C60101966C0196012D5F3F4FD7
:10278000E2FE1BC089E4D6018C938EE411968C93F3
:10279000119786E412968C93D9018E2F90E28823AC
:1027A00009F4B5CF9D938150FACF2D9381508111BB
:1027B000FCCFCE0ED11CE0E0D9CF89E6D6018C93B8
:1027C0008EE611968C93119786E6E4CF9B0177FFF6
:1027D00002C030E020E0A1E0B0E0911102C0B0E022
:1027E000A0E0F9013196AE0FBF1F8B2C912CBB20BE
:1027F00009F461C05401EFEFAE1ABE0AAA0DBB1D69
:10280000FA161B0619F014F04F2D4A1B511188C0FF
:10281000E3FC59C07601A42FB0E2A1114FC0C40E51
:10282000D11C992309F45BC040E0D6011196F60152
:1028300090836D01552309F448C0012F060F9A813A
:10284000582F507184FF03C0913309F401501016C2
:102850000CF047C0093008F008E0EEE2FE2E5B0104
:10286000A01AB10885019194819491082F3F3207F5
:1028700029F4D601FC92F60131966F0162177307B5
:1028800094F1021713077CF5DB01A21BB30BAA24FA
:10289000A394B12CAC0EBD1EAA0DBB1D11968C913C
:1028A00021503109D601119628153905F4F0F601A9
:1028B00080836D01DBCFB12CA12CA0CFF701B193A8
:1028C0007F01A150AACF9111B0CFD601942F50E330
:1028D00002C05D9391509111FCCFC40ED11C40E019
:1028E000ACCF01E0BACF80E3DBCF6217730731F4DE
:1028F000963388F4953311F4552369F0F6018083FB
:10290000FD01842F90E2811108C0A40FB11D1C921B
:1029100090E080E002CF81E3F1CF91938150F3CF3B
:10292000911183CF8ACF283008F027E03327DA01CE
:10293000990F311D87FD916000966105710539F48D
:1029400032602E5F3D9330E32A95E1F708959F3F73
:1029500030F080387105610509F03C5F3C5F3D93C4
:10296000913008F08068911DDF93CF931F930F93F0
:10297000FF92EF92192F987F9695E92F969596954D
:10298000E90FFF27EE53FF4F99273327EE24FF244B
:10299000A701E70105900894079428F4360FE71E75
:1029A000F81E491F511D660F771F881F991F069437
:1029B000A1F70590079428F4E70EF81E491F561F4B
:1029C000C11D770F881F991F661F0694A1F70590F8
:1029D000079428F4F80E491F561FC71FD11D880FF2
:1029E000991F661F771F0694A1F70590079420F49E
:1029F000490F561FC71FD81F990F661F771F881FC3
:102A00000694A9F784911095177041F0D695C79553
:102A100057954795F794E7941A95C1F7E8E6F0E0E3
:102A200068941590159135916591959105907FE287
:102A30007395E118F10A430B560BC90BD009C0F787
:102A4000E10CF11E431F561FC91FD01D7EF47033C9
:102A500011F48A95E6CFE894015030F0080F0AF49B
:102A60000027021708F4202F2395022F7A3328F02D
:102A700079E37D932A95E9F710C07D932A9589F62D
:102A8000069497956795379517951794E118F10A6D
:102A9000430B560BC90BD00998F023957E91739583
:102AA0007A3308F070E37C932013B8F77E9170615D
:102AB0007D9330F0839571E37D9370E32A95E1F780
:102AC0001124EF90FF900F911F91CF91DF919927E3
:102AD00087FD90950895DC01FC01672F71917723A4
:102AE000E1F7329704C07C916D9370836291AE17C9
:102AF000BF07C8F308952F923F924F925F926F9253
:102B00007F928F929F92AF92BF92CF92DF92EF927D
:102B1000FF920F931F93CF93DF93CDB7DEB7CA1BFE
:102B2000DB0B0FB6F894DEBF0FBECDBF09942A8829
:102B3000398848885F846E847D848C849B84AA84D1
:102B4000B984C884DF80EE80FD800C811B81AA815E
:102B5000B981CE0FD11D0FB6F894DEBF0FBECDBF29
:102B6000ED0108955058BB27AA270E94CA150C945E
:102B70001B170E940D1738F00E94141720F039F42B
:102B80009F3F19F426F40C940A170EF4E095E7FB26
:102B90000C940417E92F0E942C1758F3BA176207F8
:102BA00073078407950720F079F4A6F50C944E1767
:102BB0000EF4E0950B2EBA2FA02D0B01B901900158
:102BC0000C01CA01A0011124FF27591B99F0593F9C
:102BD00050F4503E68F11A16F040A22F232F342FE4
:102BE0004427585FF3CF469537952795A795F04032
:102BF0005395C9F77EF41F16BA0B620B730B840B47
:102C0000BAF09150A1F0FF0FBB1F661F771F881FFE
:102C1000C2F70EC0BA0F621F731F841F48F4879556
:102C200077956795B795F7959E3F08F0B0CF939548
:102C3000880F08F09927EE0F9795879508950E94C1
:102C400033160C941B170E94141758F00E940D178E
:102C500040F029F45F3F29F00C94041751110C94B3
:102C60004F170C940A170E942C1768F39923B1F39D
:102C7000552391F3951B550BBB27AA2762177307A2
:102C8000840738F09F5F5F4F220F331F441FAA1F36
:102C9000A9F335D00E2E3AF0E0E832D091505040F2
:102CA000E695001CCAF72BD0FE2F29D0660F771FA0
:102CB000881FBB1F261737074807AB07B0E809F086
:102CC000BB0B802DBF01FF2793585F4F3AF09E3F0B
:102CD000510578F00C9404170C944F175F3FE4F300
:102CE000983ED4F3869577956795B795F7959F5F4E
:102CF000C9F7880F911D9695879597F90895E1E09A
:102D0000660F771F881FBB1F621773078407BA07F8
:102D100020F0621B730B840BBA0BEE1F88F7E09553
:102D200008950E9498166894B1110C944F17089555
:102D30000E94341788F09F5798F0B92F9927B75100
:102D4000B0F0E1F0660F771F881F991F1AF0BA954F
:102D5000C9F714C0B13091F00E944E17B1E0089548
:102D60000C944E17672F782F8827B85F39F0B93F3A
:102D7000CCF3869577956795B395D9F73EF4909502
:102D80008095709561957F4F8F4F9F4F0895E89480
:102D900009C097FB3EF490958095709561957F4FA3
:102DA0008F4F9F4F9923A9F0F92F96E9BB27939551
:102DB000F695879577956795B795F111F8CFFAF461
:102DC000BB0F11F460FF1BC06F5F7F4F8F4F9F4F92
:102DD00016C0882311F096E911C0772321F09EE8F0
:102DE000872F762F05C0662371F096E8862F70E056
:102DF00060E02AF09A95660F771F881FDAF7880F30
:102E00009695879597F9089597F99F6780E870E000
:102E100060E008959FEF80EC089500240A94161650
:102E2000170618060906089500240A9412161306B8
:102E3000140605060895092E0394000C11F4882346
:102E400052F0BB0F40F4BF2B11F460FF04C06F5F62
:102E50007F4F8F4F9F4F089557FD9058440F551F38
:102E600059F05F3F71F04795880F97FB991F61F00C
:102E70009F3F79F087950895121613061406551F83
:102E8000F2CF4695F1DF08C0161617061806991FEF
:102E9000F1CF86957105610508940895E894BB27E4
:102EA00066277727CB0197F908950E9468170C943D
:102EB0001B170E940D1738F00E94141720F095235D
:102EC00011F00C9404170C940A1711240C944F174A
:102ED0000E942C1770F3959FC1F3950F50E0551F7A
:102EE000629FF001729FBB27F00DB11D639FAA275F
:102EF000F00DB11DAA1F649F6627B00DA11D661FAE
:102F0000829F2227B00DA11D621F739FB00DA11DCE
:102F1000621F839FA00D611D221F749F3327A00D88
:102F2000611D231F849F600D211D822F762F6A2F24
:102F300011249F5750409AF0F1F088234AF0EE0F89
:102F4000FF1FBB1F661F771F881F91505040A9F7B6
:102F50009E3F510580F00C9404170C944F175F3F6F
:102F6000E4F3983ED4F3869577956795B795F795F2
:102F7000E7959F5FC1F7FE2B880F911D969587956A
:102F800097F90895DB018F939F930E94F417BF91E7
:102F9000AF91A29F800D911DA39F900DB29F900DA8
:102FA00011240895A1E21A2EAA1BBB1BFD010DC01E
:102FB000AA1FBB1FEE1FFF1FA217B307E407F507E9
:102FC00020F0A21BB30BE40BF50B661F771F881FC5
:102FD000991F1A9469F760957095809590959B015B
:102FE000AC01BD01CF0108950E940518A59F900D69
:102FF000B49F900DA49F800D911D11240895EE0F94
:10300000FF1F0590F491E02D0994A29FB001B39F9A
:10301000C001A39F700D811D1124911DB29F700DE1
:10302000811D1124911D0895FB01DC0102C0019056
:103030000D9241505040D8F70895FB01DC018D916D
:10304000019080190110D9F3990B0895FB01DC015F
:103050004150504048F001900D920020C9F701C046
:0E3060001D9241505040E0F70895F894FFCFC4
:10306E00426D764C6D477A366E3974745753794F7C
:10307E00596B313270764B6855533875364E4178F0
:10308E00000000DC038000000000005B02BB01E8D2
:10309E0001A8021902F7010B02696E006F75740028
:1030AE0070776D0070750064770061770076770039
:00000001FF
